{"abi":[{"type":"constructor","inputs":[],"stateMutability":"nonpayable"},{"type":"function","name":"addDoctor","inputs":[{"name":"walletAddress","type":"address","internalType":"address"},{"name":"name","type":"string","internalType":"string"},{"name":"timeExperience","type":"uint256","internalType":"uint256"},{"name":"specialty","type":"string","internalType":"string"}],"outputs":[],"stateMutability":"nonpayable"},{"type":"function","name":"addPatient","inputs":[{"name":"walletAddress","type":"address","internalType":"address"},{"name":"preIllness","type":"string","internalType":"string"},{"name":"medications","type":"string","internalType":"string"},{"name":"allergies","type":"string","internalType":"string"}],"outputs":[],"stateMutability":"nonpayable"},{"type":"function","name":"admin","inputs":[],"outputs":[{"name":"","type":"address","internalType":"address"}],"stateMutability":"view"},{"type":"function","name":"doctors","inputs":[{"name":"","type":"address","internalType":"address"}],"outputs":[{"name":"walletAddress","type":"address","internalType":"address"},{"name":"doctorInfo","type":"tuple","internalType":"struct BlockMedSecure.DoctorInfo","components":[{"name":"name","type":"string","internalType":"string"},{"name":"timeExperience","type":"uint256","internalType":"uint256"},{"name":"specialty","type":"string","internalType":"string"}]}],"stateMutability":"view"},{"type":"function","name":"getMedicalReports","inputs":[{"name":"patientAddress","type":"address","internalType":"address"}],"outputs":[{"name":"","type":"tuple[]","internalType":"struct BlockMedSecure.MedicalReport[]","components":[{"name":"patientAddress","type":"address","internalType":"address"},{"name":"doctorAddress","type":"address","internalType":"address"},{"name":"reportNumber","type":"uint256","internalType":"uint256"},{"name":"reportDate","type":"string","internalType":"string"},{"name":"ipfsHash","type":"string","internalType":"string"}]}],"stateMutability":"view"},{"type":"function","name":"medicalReports","inputs":[{"name":"","type":"address","internalType":"address"},{"name":"","type":"uint256","internalType":"uint256"}],"outputs":[{"name":"patientAddress","type":"address","internalType":"address"},{"name":"doctorAddress","type":"address","internalType":"address"},{"name":"reportNumber","type":"uint256","internalType":"uint256"},{"name":"reportDate","type":"string","internalType":"string"},{"name":"ipfsHash","type":"string","internalType":"string"}],"stateMutability":"view"},{"type":"function","name":"patients","inputs":[{"name":"","type":"address","internalType":"address"}],"outputs":[{"name":"walletAddress","type":"address","internalType":"address"},{"name":"patientInfo","type":"tuple","internalType":"struct BlockMedSecure.PatientInfo","components":[{"name":"preIllness","type":"string","internalType":"string"},{"name":"medications","type":"string","internalType":"string"},{"name":"allergies","type":"string","internalType":"string"}]}],"stateMutability":"view"},{"type":"function","name":"writeMedicalReport","inputs":[{"name":"patientAddress","type":"address","internalType":"address"},{"name":"reportNumber","type":"uint256","internalType":"uint256"},{"name":"reportDate","type":"string","internalType":"string"},{"name":"ipfsHash","type":"string","internalType":"string"}],"outputs":[],"stateMutability":"nonpayable"},{"type":"event","name":"DoctorAdded","inputs":[{"name":"walletAddress","type":"address","indexed":false,"internalType":"address"},{"name":"name","type":"string","indexed":false,"internalType":"string"},{"name":"specialty","type":"string","indexed":false,"internalType":"string"}],"anonymous":false},{"type":"event","name":"MedicalReportAdded","inputs":[{"name":"patientAddress","type":"address","indexed":false,"internalType":"address"},{"name":"doctorAddress","type":"address","indexed":false,"internalType":"address"},{"name":"reportNumber","type":"uint256","indexed":false,"internalType":"uint256"},{"name":"reportDate","type":"string","indexed":false,"internalType":"string"},{"name":"ipfsHash","type":"string","indexed":false,"internalType":"string"}],"anonymous":false},{"type":"event","name":"PatientAdded","inputs":[{"name":"walletAddress","type":"address","indexed":false,"internalType":"address"},{"name":"preIllness","type":"string","indexed":false,"internalType":"string"},{"name":"medications","type":"string","indexed":false,"internalType":"string"},{"name":"allergies","type":"string","indexed":false,"internalType":"string"}],"anonymous":false}],"bytecode":{"object":"0x608060405234801561001057600080fd5b50600080546001600160a01b03191633179055611396806100326000396000f3fe608060405234801561001057600080fd5b50600436106100885760003560e01c8063d87c78fd1161005b578063d87c78fd14610100578063e7d7a2ae14610124578063f6b3229114610144578063f851a4401461015757600080fd5b80630869cfbc1461008d5780632c76361f146100b7578063887d8c11146100cc578063a9583c22146100df575b600080fd5b6100a061009b366004610d09565b610182565b6040516100ae929190610d71565b60405180910390f35b6100ca6100c5366004610e84565b610368565b005b6100ca6100da366004610f1d565b610536565b6100f26100ed366004610d09565b6106c7565b6040516100ae929190610f60565b61011361010e366004610fb1565b6107a0565b6040516100ae959493929190610fdb565b610137610132366004610d09565b61090d565b6040516100ae919061102c565b6100ca6101523660046110e2565b610ad4565b60005461016a906001600160a01b031681565b6040516001600160a01b0390911681526020016100ae565b6002602052600090815260409081902080548251606081019093526001820180546001600160a01b039092169391829082906101bd90611147565b80601f01602080910402602001604051908101604052809291908181526020018280546101e990611147565b80156102365780601f1061020b57610100808354040283529160200191610236565b820191906000526020600020905b81548152906001019060200180831161021957829003601f168201915b5050505050815260200160018201805461024f90611147565b80601f016020809104026020016040519081016040528092919081815260200182805461027b90611147565b80156102c85780601f1061029d576101008083540402835291602001916102c8565b820191906000526020600020905b8154815290600101906020018083116102ab57829003601f168201915b505050505081526020016002820180546102e190611147565b80601f016020809104026020016040519081016040528092919081815260200182805461030d90611147565b801561035a5780601f1061032f5761010080835404028352916020019161035a565b820191906000526020600020905b81548152906001019060200180831161033d57829003601f168201915b505050505081525050905082565b6000546001600160a01b0316331461039b5760405162461bcd60e51b815260040161039290611181565b60405180910390fd5b604080516080810182526001600160a01b038616815281516060810183528581526020818101869052818401859052820152908101600060405190808252806020026020018201604052801561040557816020015b60608152602001906001900390816103f05790505b508152602001600060405190808252806020026020018201604052801561044057816020015b606081526020019060019003908161042b5790505b5090526001600160a01b038581166000908152600260209081526040909120835181546001600160a01b031916931692909217825582015180516001830190819061048b9082611215565b50602082015160018201906104a09082611215565b50604082015160028201906104b59082611215565b505050604082015180516104d3916004840191602090910190610c28565b50606082015180516104ef916005840191602090910190610c28565b509050507f1e1fba7cbee1bbe7713f54fcaf9a3e17b38d9cae161c73c9b86500a4e2ac73318484848460405161052894939291906112d5565b60405180910390a150505050565b336000818152600160205260409020546001600160a01b0316146105b15760405162461bcd60e51b815260206004820152602c60248201527f4f6e6c7920766572696669656420646f63746f72732063616e2063616c6c207460448201526b3434b990333ab731ba34b7b760a11b6064820152608401610392565b6001600160a01b038085166000818152600360208181526040808420815160a081018352958652338684019081529186018a8152606087018a8152608088018a905282546001818101855593885294909620875160059095020180549489166001600160a01b03199586161781559251918301805492909816919093161790955551600285015590519192919082019061064b9082611215565b50608082015160048201906106609082611215565b5050336000908152600160208181526040832060040180549283018155835290912001905061068f8282611215565b507f51bc21026c51d827ee0b35bda0189e200cebd40cc63a8d0a5eda9b7c9057a29e8433858585604051610528959493929190610fdb565b600160208190526000918252604091829020805483516060810190945291810180546001600160a01b039093169391928290829061070490611147565b80601f016020809104026020016040519081016040528092919081815260200182805461073090611147565b801561077d5780601f106107525761010080835404028352916020019161077d565b820191906000526020600020905b81548152906001019060200180831161076057829003601f168201915b50505050508152602001600182015481526020016002820180546102e190611147565b600360205281600052604060002081815481106107bc57600080fd5b600091825260209091206005909102018054600182015460028301546003840180546001600160a01b03948516975093909216945092916107fc90611147565b80601f016020809104026020016040519081016040528092919081815260200182805461082890611147565b80156108755780601f1061084a57610100808354040283529160200191610875565b820191906000526020600020905b81548152906001019060200180831161085857829003601f168201915b50505050509080600401805461088a90611147565b80601f01602080910402602001604051908101604052809291908181526020018280546108b690611147565b80156109035780601f106108d857610100808354040283529160200191610903565b820191906000526020600020905b8154815290600101906020018083116108e657829003601f168201915b5050505050905085565b6001600160a01b0381166000908152600360209081526040808320805482518185028101850190935280835260609492939192909184015b82821015610ac95760008481526020908190206040805160a0810182526005860290920180546001600160a01b039081168452600182015416938301939093526002830154908201526003820180549192916060840191906109a690611147565b80601f01602080910402602001604051908101604052809291908181526020018280546109d290611147565b8015610a1f5780601f106109f457610100808354040283529160200191610a1f565b820191906000526020600020905b815481529060010190602001808311610a0257829003601f168201915b50505050508152602001600482018054610a3890611147565b80601f0160208091040260200160405190810160405280929190818152602001828054610a6490611147565b8015610ab15780601f10610a8657610100808354040283529160200191610ab1565b820191906000526020600020905b815481529060010190602001808311610a9457829003601f168201915b50505050508152505081526020019060010190610945565b505050509050919050565b6000546001600160a01b03163314610afe5760405162461bcd60e51b815260040161039290611181565b60408051606080820183526001600160a01b03871682528251908101835285815260208181018690528184018590528201529081016000604051908082528060200260200182016040528015610b6857816020015b6060815260200190600190039081610b535790505b5090526001600160a01b038581166000908152600160208181526040909220845181546001600160a01b031916941693909317835590830151805190918301908190610bb49082611215565b506020820151600182015560408201516002820190610bd39082611215565b50505060408201518051610bf1916004840191602090910190610c28565b509050507f9388661dcd7dc6cff9b4e22ab9459ac0a2682f86cb52fc7a669a6e7f062bce4c8484836040516105289392919061132a565b828054828255906000526020600020908101928215610c6e579160200282015b82811115610c6e5782518290610c5e9082611215565b5091602001919060010190610c48565b50610c7a929150610c7e565b5090565b80821115610c7a576000610c928282610c9b565b50600101610c7e565b508054610ca790611147565b6000825580601f10610cb7575050565b601f016020900490600052602060002090810190610cd59190610cd8565b50565b5b80821115610c7a5760008155600101610cd9565b80356001600160a01b0381168114610d0457600080fd5b919050565b600060208284031215610d1b57600080fd5b610d2482610ced565b9392505050565b6000815180845260005b81811015610d5157602081850181015186830182015201610d35565b506000602082860101526020601f19601f83011685010191505092915050565b60018060a01b0383168152604060208201526000825160606040840152610d9b60a0840182610d2b565b90506020840151603f1980858403016060860152610db98383610d2b565b9250604086015191508085840301608086015250610dd78282610d2b565b9695505050505050565b634e487b7160e01b600052604160045260246000fd5b600082601f830112610e0857600080fd5b813567ffffffffffffffff80821115610e2357610e23610de1565b604051601f8301601f19908116603f01168101908282118183101715610e4b57610e4b610de1565b81604052838152866020858801011115610e6457600080fd5b836020870160208301376000602085830101528094505050505092915050565b60008060008060808587031215610e9a57600080fd5b610ea385610ced565b9350602085013567ffffffffffffffff80821115610ec057600080fd5b610ecc88838901610df7565b94506040870135915080821115610ee257600080fd5b610eee88838901610df7565b93506060870135915080821115610f0457600080fd5b50610f1187828801610df7565b91505092959194509250565b60008060008060808587031215610f3357600080fd5b610f3c85610ced565b935060208501359250604085013567ffffffffffffffff80821115610ee257600080fd5b60018060a01b0383168152604060208201526000825160606040840152610f8a60a0840182610d2b565b9050602084015160608401526040840151603f19848303016080850152610dd78282610d2b565b60008060408385031215610fc457600080fd5b610fcd83610ced565b946020939093013593505050565b6001600160a01b038681168252851660208201526040810184905260a06060820181905260009061100e90830185610d2b565b82810360808401526110208185610d2b565b98975050505050505050565b60006020808301818452808551808352604092508286019150828160051b87010184880160005b838110156110d457888303603f19018552815180516001600160a01b039081168552888201511688850152868101518785015260608082015160a082870181905291906110a283880182610d2b565b92505050608080830151925085820381870152506110c08183610d2b565b968901969450505090860190600101611053565b509098975050505050505050565b600080600080608085870312156110f857600080fd5b61110185610ced565b9350602085013567ffffffffffffffff8082111561111e57600080fd5b61112a88838901610df7565b9450604087013593506060870135915080821115610f0457600080fd5b600181811c9082168061115b57607f821691505b60208210810361117b57634e487b7160e01b600052602260045260246000fd5b50919050565b60208082526025908201527f4f6e6c79207468652061646d696e2063616e2063616c6c20746869732066756e60408201526431ba34b7b760d91b606082015260800190565b601f82111561121057600081815260208120601f850160051c810160208610156111ed5750805b601f850160051c820191505b8181101561120c578281556001016111f9565b5050505b505050565b815167ffffffffffffffff81111561122f5761122f610de1565b6112438161123d8454611147565b846111c6565b602080601f83116001811461127857600084156112605750858301515b600019600386901b1c1916600185901b17855561120c565b600085815260208120601f198616915b828110156112a757888601518255948401946001909101908401611288565b50858210156112c55787850151600019600388901b60f8161c191681555b5050505050600190811b01905550565b6001600160a01b03851681526080602082018190526000906112f990830186610d2b565b828103604084015261130b8186610d2b565b9050828103606084015261131f8185610d2b565b979650505050505050565b6001600160a01b038416815260606020820181905260009061134e90830185610d2b565b8281036040840152610dd78185610d2b56fea2646970667358221220bc1a08d9f274b110f2b10b8383c14a98066093b4d77ea07a557f454b2a11102264736f6c63430008150033","linkReferences":{}},"methodIdentifiers":{"addDoctor(address,string,uint256,string)":"f6b32291","addPatient(address,string,string,string)":"2c76361f","admin()":"f851a440","doctors(address)":"a9583c22","getMedicalReports(address)":"e7d7a2ae","medicalReports(address,uint256)":"d87c78fd","patients(address)":"0869cfbc","writeMedicalReport(address,uint256,string,string)":"887d8c11"},"id":20}